{
  "contractName": "PublicResolver",
  "abi": [
    {
      "inputs": [
        {
          "internalType": "contract ENS",
          "name": "_ens",
          "type": "address"
        }
      ],
      "payable": false,
      "stateMutability": "nonpayable",
      "type": "constructor"
    },
    {
      "anonymous": false,
      "inputs": [
        {
          "indexed": true,
          "internalType": "bytes32",
          "name": "node",
          "type": "bytes32"
        },
        {
          "indexed": true,
          "internalType": "uint256",
          "name": "contentType",
          "type": "uint256"
        }
      ],
      "name": "ABIChanged",
      "type": "event"
    },
    {
      "anonymous": false,
      "inputs": [
        {
          "indexed": true,
          "internalType": "bytes32",
          "name": "node",
          "type": "bytes32"
        },
        {
          "indexed": false,
          "internalType": "address",
          "name": "a",
          "type": "address"
        }
      ],
      "name": "AddrChanged",
      "type": "event"
    },
    {
      "anonymous": false,
      "inputs": [
        {
          "indexed": true,
          "internalType": "bytes32",
          "name": "node",
          "type": "bytes32"
        },
        {
          "indexed": false,
          "internalType": "uint256",
          "name": "coinType",
          "type": "uint256"
        },
        {
          "indexed": false,
          "internalType": "bytes",
          "name": "newAddress",
          "type": "bytes"
        }
      ],
      "name": "AddressChanged",
      "type": "event"
    },
    {
      "anonymous": false,
      "inputs": [
        {
          "indexed": true,
          "internalType": "bytes32",
          "name": "node",
          "type": "bytes32"
        },
        {
          "indexed": true,
          "internalType": "address",
          "name": "owner",
          "type": "address"
        },
        {
          "indexed": true,
          "internalType": "address",
          "name": "target",
          "type": "address"
        },
        {
          "indexed": false,
          "internalType": "bool",
          "name": "isAuthorised",
          "type": "bool"
        }
      ],
      "name": "AuthorisationChanged",
      "type": "event"
    },
    {
      "anonymous": false,
      "inputs": [
        {
          "indexed": true,
          "internalType": "bytes32",
          "name": "node",
          "type": "bytes32"
        },
        {
          "indexed": false,
          "internalType": "bytes",
          "name": "hash",
          "type": "bytes"
        }
      ],
      "name": "ContenthashChanged",
      "type": "event"
    },
    {
      "anonymous": false,
      "inputs": [
        {
          "indexed": true,
          "internalType": "bytes32",
          "name": "node",
          "type": "bytes32"
        },
        {
          "indexed": false,
          "internalType": "bytes",
          "name": "name",
          "type": "bytes"
        },
        {
          "indexed": false,
          "internalType": "uint16",
          "name": "resource",
          "type": "uint16"
        },
        {
          "indexed": false,
          "internalType": "bytes",
          "name": "record",
          "type": "bytes"
        }
      ],
      "name": "DNSRecordChanged",
      "type": "event"
    },
    {
      "anonymous": false,
      "inputs": [
        {
          "indexed": true,
          "internalType": "bytes32",
          "name": "node",
          "type": "bytes32"
        },
        {
          "indexed": false,
          "internalType": "bytes",
          "name": "name",
          "type": "bytes"
        },
        {
          "indexed": false,
          "internalType": "uint16",
          "name": "resource",
          "type": "uint16"
        }
      ],
      "name": "DNSRecordDeleted",
      "type": "event"
    },
    {
      "anonymous": false,
      "inputs": [
        {
          "indexed": true,
          "internalType": "bytes32",
          "name": "node",
          "type": "bytes32"
        }
      ],
      "name": "DNSZoneCleared",
      "type": "event"
    },
    {
      "anonymous": false,
      "inputs": [
        {
          "indexed": true,
          "internalType": "bytes32",
          "name": "node",
          "type": "bytes32"
        },
        {
          "indexed": false,
          "internalType": "bytes",
          "name": "lastzonehash",
          "type": "bytes"
        },
        {
          "indexed": false,
          "internalType": "bytes",
          "name": "zonehash",
          "type": "bytes"
        }
      ],
      "name": "DNSZonehashChanged",
      "type": "event"
    },
    {
      "anonymous": false,
      "inputs": [
        {
          "indexed": true,
          "internalType": "bytes32",
          "name": "node",
          "type": "bytes32"
        },
        {
          "indexed": true,
          "internalType": "bytes4",
          "name": "interfaceID",
          "type": "bytes4"
        },
        {
          "indexed": false,
          "internalType": "address",
          "name": "implementer",
          "type": "address"
        }
      ],
      "name": "InterfaceChanged",
      "type": "event"
    },
    {
      "anonymous": false,
      "inputs": [
        {
          "indexed": true,
          "internalType": "bytes32",
          "name": "node",
          "type": "bytes32"
        },
        {
          "indexed": false,
          "internalType": "string",
          "name": "name",
          "type": "string"
        }
      ],
      "name": "NameChanged",
      "type": "event"
    },
    {
      "anonymous": false,
      "inputs": [
        {
          "indexed": true,
          "internalType": "bytes32",
          "name": "node",
          "type": "bytes32"
        },
        {
          "indexed": false,
          "internalType": "bytes32",
          "name": "x",
          "type": "bytes32"
        },
        {
          "indexed": false,
          "internalType": "bytes32",
          "name": "y",
          "type": "bytes32"
        }
      ],
      "name": "PubkeyChanged",
      "type": "event"
    },
    {
      "anonymous": false,
      "inputs": [
        {
          "indexed": true,
          "internalType": "bytes32",
          "name": "node",
          "type": "bytes32"
        },
        {
          "indexed": true,
          "internalType": "string",
          "name": "indexedKey",
          "type": "string"
        },
        {
          "indexed": false,
          "internalType": "string",
          "name": "key",
          "type": "string"
        }
      ],
      "name": "TextChanged",
      "type": "event"
    },
    {
      "constant": true,
      "inputs": [
        {
          "internalType": "bytes32",
          "name": "node",
          "type": "bytes32"
        },
        {
          "internalType": "uint256",
          "name": "contentTypes",
          "type": "uint256"
        }
      ],
      "name": "ABI",
      "outputs": [
        {
          "internalType": "uint256",
          "name": "",
          "type": "uint256"
        },
        {
          "internalType": "bytes",
          "name": "",
          "type": "bytes"
        }
      ],
      "payable": false,
      "stateMutability": "view",
      "type": "function"
    },
    {
      "constant": true,
      "inputs": [
        {
          "internalType": "bytes32",
          "name": "node",
          "type": "bytes32"
        }
      ],
      "name": "addr",
      "outputs": [
        {
          "internalType": "address payable",
          "name": "",
          "type": "address"
        }
      ],
      "payable": false,
      "stateMutability": "view",
      "type": "function"
    },
    {
      "constant": true,
      "inputs": [
        {
          "internalType": "bytes32",
          "name": "node",
          "type": "bytes32"
        },
        {
          "internalType": "uint256",
          "name": "coinType",
          "type": "uint256"
        }
      ],
      "name": "addr",
      "outputs": [
        {
          "internalType": "bytes",
          "name": "",
          "type": "bytes"
        }
      ],
      "payable": false,
      "stateMutability": "view",
      "type": "function"
    },
    {
      "constant": true,
      "inputs": [
        {
          "internalType": "bytes32",
          "name": "",
          "type": "bytes32"
        },
        {
          "internalType": "address",
          "name": "",
          "type": "address"
        },
        {
          "internalType": "address",
          "name": "",
          "type": "address"
        }
      ],
      "name": "authorisations",
      "outputs": [
        {
          "internalType": "bool",
          "name": "",
          "type": "bool"
        }
      ],
      "payable": false,
      "stateMutability": "view",
      "type": "function"
    },
    {
      "constant": false,
      "inputs": [
        {
          "internalType": "bytes32",
          "name": "node",
          "type": "bytes32"
        }
      ],
      "name": "clearDNSZone",
      "outputs": [],
      "payable": false,
      "stateMutability": "nonpayable",
      "type": "function"
    },
    {
      "constant": true,
      "inputs": [
        {
          "internalType": "bytes32",
          "name": "node",
          "type": "bytes32"
        }
      ],
      "name": "contenthash",
      "outputs": [
        {
          "internalType": "bytes",
          "name": "",
          "type": "bytes"
        }
      ],
      "payable": false,
      "stateMutability": "view",
      "type": "function"
    },
    {
      "constant": true,
      "inputs": [
        {
          "internalType": "bytes32",
          "name": "node",
          "type": "bytes32"
        },
        {
          "internalType": "bytes32",
          "name": "name",
          "type": "bytes32"
        },
        {
          "internalType": "uint16",
          "name": "resource",
          "type": "uint16"
        }
      ],
      "name": "dnsRecord",
      "outputs": [
        {
          "internalType": "bytes",
          "name": "",
          "type": "bytes"
        }
      ],
      "payable": false,
      "stateMutability": "view",
      "type": "function"
    },
    {
      "constant": true,
      "inputs": [
        {
          "internalType": "bytes32",
          "name": "node",
          "type": "bytes32"
        },
        {
          "internalType": "bytes32",
          "name": "name",
          "type": "bytes32"
        }
      ],
      "name": "hasDNSRecords",
      "outputs": [
        {
          "internalType": "bool",
          "name": "",
          "type": "bool"
        }
      ],
      "payable": false,
      "stateMutability": "view",
      "type": "function"
    },
    {
      "constant": true,
      "inputs": [
        {
          "internalType": "bytes32",
          "name": "node",
          "type": "bytes32"
        },
        {
          "internalType": "bytes4",
          "name": "interfaceID",
          "type": "bytes4"
        }
      ],
      "name": "interfaceImplementer",
      "outputs": [
        {
          "internalType": "address",
          "name": "",
          "type": "address"
        }
      ],
      "payable": false,
      "stateMutability": "view",
      "type": "function"
    },
    {
      "constant": true,
      "inputs": [
        {
          "internalType": "bytes32",
          "name": "node",
          "type": "bytes32"
        }
      ],
      "name": "name",
      "outputs": [
        {
          "internalType": "string",
          "name": "",
          "type": "string"
        }
      ],
      "payable": false,
      "stateMutability": "view",
      "type": "function"
    },
    {
      "constant": true,
      "inputs": [
        {
          "internalType": "bytes32",
          "name": "node",
          "type": "bytes32"
        }
      ],
      "name": "pubkey",
      "outputs": [
        {
          "internalType": "bytes32",
          "name": "x",
          "type": "bytes32"
        },
        {
          "internalType": "bytes32",
          "name": "y",
          "type": "bytes32"
        }
      ],
      "payable": false,
      "stateMutability": "view",
      "type": "function"
    },
    {
      "constant": false,
      "inputs": [
        {
          "internalType": "bytes32",
          "name": "node",
          "type": "bytes32"
        },
        {
          "internalType": "uint256",
          "name": "contentType",
          "type": "uint256"
        },
        {
          "internalType": "bytes",
          "name": "data",
          "type": "bytes"
        }
      ],
      "name": "setABI",
      "outputs": [],
      "payable": false,
      "stateMutability": "nonpayable",
      "type": "function"
    },
    {
      "constant": false,
      "inputs": [
        {
          "internalType": "bytes32",
          "name": "node",
          "type": "bytes32"
        },
        {
          "internalType": "uint256",
          "name": "coinType",
          "type": "uint256"
        },
        {
          "internalType": "bytes",
          "name": "a",
          "type": "bytes"
        }
      ],
      "name": "setAddr",
      "outputs": [],
      "payable": false,
      "stateMutability": "nonpayable",
      "type": "function"
    },
    {
      "constant": false,
      "inputs": [
        {
          "internalType": "bytes32",
          "name": "node",
          "type": "bytes32"
        },
        {
          "internalType": "address",
          "name": "a",
          "type": "address"
        }
      ],
      "name": "setAddr",
      "outputs": [],
      "payable": false,
      "stateMutability": "nonpayable",
      "type": "function"
    },
    {
      "constant": false,
      "inputs": [
        {
          "internalType": "bytes32",
          "name": "node",
          "type": "bytes32"
        },
        {
          "internalType": "bytes",
          "name": "hash",
          "type": "bytes"
        }
      ],
      "name": "setContenthash",
      "outputs": [],
      "payable": false,
      "stateMutability": "nonpayable",
      "type": "function"
    },
    {
      "constant": false,
      "inputs": [
        {
          "internalType": "bytes32",
          "name": "node",
          "type": "bytes32"
        },
        {
          "internalType": "bytes",
          "name": "data",
          "type": "bytes"
        }
      ],
      "name": "setDNSRecords",
      "outputs": [],
      "payable": false,
      "stateMutability": "nonpayable",
      "type": "function"
    },
    {
      "constant": false,
      "inputs": [
        {
          "internalType": "bytes32",
          "name": "node",
          "type": "bytes32"
        },
        {
          "internalType": "bytes4",
          "name": "interfaceID",
          "type": "bytes4"
        },
        {
          "internalType": "address",
          "name": "implementer",
          "type": "address"
        }
      ],
      "name": "setInterface",
      "outputs": [],
      "payable": false,
      "stateMutability": "nonpayable",
      "type": "function"
    },
    {
      "constant": false,
      "inputs": [
        {
          "internalType": "bytes32",
          "name": "node",
          "type": "bytes32"
        },
        {
          "internalType": "string",
          "name": "name",
          "type": "string"
        }
      ],
      "name": "setName",
      "outputs": [],
      "payable": false,
      "stateMutability": "nonpayable",
      "type": "function"
    },
    {
      "constant": false,
      "inputs": [
        {
          "internalType": "bytes32",
          "name": "node",
          "type": "bytes32"
        },
        {
          "internalType": "bytes32",
          "name": "x",
          "type": "bytes32"
        },
        {
          "internalType": "bytes32",
          "name": "y",
          "type": "bytes32"
        }
      ],
      "name": "setPubkey",
      "outputs": [],
      "payable": false,
      "stateMutability": "nonpayable",
      "type": "function"
    },
    {
      "constant": false,
      "inputs": [
        {
          "internalType": "bytes32",
          "name": "node",
          "type": "bytes32"
        },
        {
          "internalType": "string",
          "name": "key",
          "type": "string"
        },
        {
          "internalType": "string",
          "name": "value",
          "type": "string"
        }
      ],
      "name": "setText",
      "outputs": [],
      "payable": false,
      "stateMutability": "nonpayable",
      "type": "function"
    },
    {
      "constant": false,
      "inputs": [
        {
          "internalType": "bytes32",
          "name": "node",
          "type": "bytes32"
        },
        {
          "internalType": "bytes",
          "name": "hash",
          "type": "bytes"
        }
      ],
      "name": "setZonehash",
      "outputs": [],
      "payable": false,
      "stateMutability": "nonpayable",
      "type": "function"
    },
    {
      "constant": true,
      "inputs": [
        {
          "internalType": "bytes4",
          "name": "interfaceID",
          "type": "bytes4"
        }
      ],
      "name": "supportsInterface",
      "outputs": [
        {
          "internalType": "bool",
          "name": "",
          "type": "bool"
        }
      ],
      "payable": false,
      "stateMutability": "pure",
      "type": "function"
    },
    {
      "constant": true,
      "inputs": [
        {
          "internalType": "bytes32",
          "name": "node",
          "type": "bytes32"
        },
        {
          "internalType": "string",
          "name": "key",
          "type": "string"
        }
      ],
      "name": "text",
      "outputs": [
        {
          "internalType": "string",
          "name": "",
          "type": "string"
        }
      ],
      "payable": false,
      "stateMutability": "view",
      "type": "function"
    },
    {
      "constant": true,
      "inputs": [
        {
          "internalType": "bytes32",
          "name": "node",
          "type": "bytes32"
        }
      ],
      "name": "zonehash",
      "outputs": [
        {
          "internalType": "bytes",
          "name": "",
          "type": "bytes"
        }
      ],
      "payable": false,
      "stateMutability": "view",
      "type": "function"
    },
    {
      "constant": false,
      "inputs": [
        {
          "internalType": "bytes32",
          "name": "node",
          "type": "bytes32"
        },
        {
          "internalType": "address",
          "name": "target",
          "type": "address"
        },
        {
          "internalType": "bool",
          "name": "isAuthorised",
          "type": "bool"
        }
      ],
      "name": "setAuthorisation",
      "outputs": [],
      "payable": false,
      "stateMutability": "nonpayable",
      "type": "function"
    },
    {
      "constant": false,
      "inputs": [
        {
          "internalType": "bytes[]",
          "name": "data",
          "type": "bytes[]"
        }
      ],
      "name": "multicall",
      "outputs": [
        {
          "internalType": "bytes[]",
          "name": "results",
          "type": "bytes[]"
        }
      ],
      "payable": false,
      "stateMutability": "nonpayable",
      "type": "function"
    }
  ],
  "bytecode": "0x60806040523480156200001157600080fd5b50604051620027d5380380620027d583398101604081905262000034916200006d565b600b80546001600160a01b0319166001600160a01b0392909216919091179055620000d6565b80516200006781620000bc565b92915050565b6000602082840312156200008057600080fd5b60006200008e84846200005a565b949350505050565b60006200006782620000b0565b6000620000678262000096565b6001600160a01b031690565b620000c781620000a3565b8114620000d357600080fd5b50565b6126ef80620000e66000396000f3fe608060405234801561001057600080fd5b506004361061018e5760003560e01c8063691f3431116100de578063bc1c58d111610097578063d5fa2b0011610071578063d5fa2b0014610390578063e59d895d146103a3578063f1cb7e06146103b6578063f86bc879146103c95761018e565b8063bc1c58d114610349578063c86902331461035c578063ce3decdc1461037d5761018e565b8063691f3431146102ca57806377372213146102dd5780638b95dd71146102f0578063a8fa568214610303578063ac9650d814610316578063ad5780af146103365761018e565b8063304e6ade1161014b5780634cbf6ba4116101255780634cbf6ba41461027157806359d1d43c146102845780635c98042b146102a4578063623195b0146102b75761018e565b8063304e6ade146102385780633b3b57de1461024b5780633e9ce7941461025e5761018e565b806301ffc9a7146101935780630af179d7146101bc57806310f13a8c146101d1578063124a319c146101e45780632203ab561461020457806329cd62ea14610225575b600080fd5b6101a66101a136600461226f565b6103dc565b6040516101b39190612482565b60405180910390f35b6101cf6101ca3660046120cf565b610409565b005b6101cf6101df366004612125565b6105f6565b6101f76101f236600461206d565b6106a3565b6040516101b39190612455565b610217610212366004611fb7565b6108ce565b6040516101b392919061256b565b6101cf610233366004611fe7565b6109ed565b6101cf6102463660046120cf565b610a6d565b6101f7610259366004611ecf565b610acc565b6101cf61026c366004611f74565b610b01565b6101a661027f366004611fb7565b610b7b565b6102976102923660046120cf565b610bad565b6040516101b391906124d9565b6102976102b2366004611ecf565b610c6f565b6101cf6102c53660046121ac565b610d10565b6102976102d8366004611ecf565b610d8b565b6101cf6102eb3660046120cf565b610df5565b6101cf6102fe366004612214565b610e54565b61029761031136600461202a565b610f19565b610329610324366004611e8d565b610fa6565b6040516101b39190612471565b6101cf610344366004611ecf565b6110cc565b610297610357366004611ecf565b61111f565b61036f61036a366004611ecf565b611187565b6040516101b392919061249e565b6101cf61038b3660046120cf565b6111a1565b6101cf61039e366004611eed565b6112b0565b6101cf6103b136600461209d565b6112d7565b6102976103c4366004611fb7565b611367565b6101a66103d7366004611f27565b611410565b60006001600160e01b03198216631674750f60e21b1480610401575061040182611436565b90505b919050565b826104138161145b565b61041c57600080fd5b6000806060808261042b611bb9565b61047560008a8a8080601f016020809104026020016040519081016040528093929190818152602001838380828437600092019190915250929392505063ffffffff61152a169050565b90505b61048181611545565b6105995761ffff86166104d9578060400151955061049e81611553565b9350836040516020016104b1919061243e565b6040516020818303038152906040528051906020012091506104d28161157a565b925061058b565b60606104e482611553565b9050816040015161ffff168761ffff1614158061050e575061050c858263ffffffff61159b16565b155b15610589576105628b86898d8d8080601f016020809104026020016040519081016040528093929190818152602001838380828437600092019190915250505050602087015189518c9182900390156115b9565b8160400151965081602001519550809450848051906020012092506105868261157a565b93505b505b610594816117e6565b610478565b508251156105eb576105eb8984878b8b8080601f0160208091040260200160405190810160405280939291908181526020018383808284376000920191909152505088518b9250828f039150156115b9565b505050505050505050565b846106008161145b565b61060957600080fd5b8282600a6000898152602001908152602001600020878760405161062e929190612431565b908152604051908190036020019020610648929091611c04565b508484604051610659929190612431565b6040518091039020867fd8c9334b1a9c2f9da342a0a2b32629c1a229b6445dad78947f674b44444a755087876040516106939291906124c7565b60405180910390a3505050505050565b60008281526007602090815260408083206001600160e01b0319851684529091528120546001600160a01b031680156106dd5790506108c8565b60006106e885610acc565b90506001600160a01b038116610703576000925050506108c8565b60006060826001600160a01b03166301ffc9a760e01b60405160240161072991906124b9565b60408051601f198184030181529181526020820180516001600160e01b03166301ffc9a760e01b1790525161075e919061243e565b600060405180830381855afa9150503d8060008114610799576040519150601f19603f3d011682016040523d82523d6000602084013e61079e565b606091505b50915091508115806107b1575060208151105b806107d5575080601f815181106107c457fe5b01602001516001600160f81b031916155b156107e75760009450505050506108c8565b826001600160a01b03168660405160240161080291906124b9565b60408051601f198184030181529181526020820180516001600160e01b03166301ffc9a760e01b17905251610837919061243e565b600060405180830381855afa9150503d8060008114610872576040519150601f19603f3d011682016040523d82523d6000602084013e610877565b606091505b50909250905081158061088b575060208151105b806108af575080601f8151811061089e57fe5b01602001516001600160f81b031916155b156108c15760009450505050506108c8565b5090925050505b92915050565b600082815260208190526040812060609060015b8481116109cf578085161580159061091a57506000818152602083905260409020546002600019610100600184161502019091160415155b156109c7576000818152602083815260409182902080548351601f60026000196101006001861615020190931692909204918201849004840281018401909452808452849391928391908301828280156109b55780601f1061098a576101008083540402835291602001916109b5565b820191906000526020600020905b81548152906001019060200180831161099857829003601f168201915b505050505090509350935050506109e6565b60011b6108e2565b505060408051602081019091526000808252925090505b9250929050565b826109f78161145b565b610a0057600080fd5b6040805180820182528481526020808201858152600088815260099092529083902091518255516001909101555184907f1d6f5e03d3f63eb58751986629a5439baee5079ff04f345becb66e23eb154e4690610a5f908690869061249e565b60405180910390a250505050565b82610a778161145b565b610a8057600080fd5b6000848152600260205260409020610a99908484611c04565b50837fe379c1624ed7e714cc0937528a32359d69d5281337765313dba4e081b72d75788484604051610a5f9291906124c7565b60006060610adb83603c611367565b9050805160001415610af1576000915050610404565b610afa816118b9565b9392505050565b6000838152600c60209081526040808320338085529083528184206001600160a01b038716808652935292819020805460ff19168515151790555190919085907fe1c5610a6e0cbe10764ecd182adcef1ec338dc4e199c99c32ce98f38e12791df90610b6e908690612482565b60405180910390a4505050565b600091825260066020908152604080842060048352818520548552825280842092845291905290205461ffff16151590565b6060600a60008581526020019081526020016000208383604051610bd2929190612431565b9081526040805160209281900383018120805460026001821615610100026000190190911604601f81018590048502830185019093528282529092909190830182828015610c615780601f10610c3657610100808354040283529160200191610c61565b820191906000526020600020905b815481529060010190602001808311610c4457829003601f168201915b505050505090509392505050565b60008181526003602090815260409182902080548351601f6002600019610100600186161502019093169290920491820184900484028101840190945280845260609392830182828015610d045780601f10610cd957610100808354040283529160200191610d04565b820191906000526020600020905b815481529060010190602001808311610ce757829003601f168201915b50505050509050919050565b83610d1a8161145b565b610d2357600080fd5b6000198401841615610d3457600080fd5b6000858152602081815260408083208784529091529020610d56908484611c04565b50604051849086907faa121bbeef5f32f5961a2a28966e769023910fc9479059ee3495d4c1a696efe390600090a35050505050565b60008181526008602090815260409182902080548351601f6002600019610100600186161502019093169290920491820184900484028101840190945280845260609392830182828015610d045780601f10610cd957610100808354040283529160200191610d04565b82610dff8161145b565b610e0857600080fd5b6000848152600860205260409020610e21908484611c04565b50837fb7d29e911041e8d9b843369e890bcb72c9388692ba48b65ac54e7214c4c348f78484604051610a5f9291906124c7565b82610e5e8161145b565b610e6757600080fd5b837f65412581168e88a1e60c6459d7f44ae83ad0832e670826c05a4e2476b57af7528484604051610e9992919061256b565b60405180910390a2603c831415610eeb57837f52d7d861f09ab3d26239d492e8968629f95e9e318cf0b73bfddc441522a15fd2610ed5846118b9565b604051610ee29190612463565b60405180910390a25b600084815260016020908152604080832086845282529091208351610f1292850190611c82565b5050505050565b6000838152600560209081526040808320600483528184205484528252808320858452825280832061ffff8516845282529182902080548351601f6002600019610100600186161502019093169290920491820184900484028101840190945280845260609392830182828015610c615780601f10610c3657610100808354040283529160200191610c61565b604080518281526020808402820101909152606090828015610fdc57816020015b6060815260200190600190039081610fc75790505b50905060005b828110156110c5576000606030868685818110610ffb57fe5b602002820190508035601e193684900301811261101757600080fd5b9091016020810191503567ffffffffffffffff81111561103657600080fd5b3681900382131561104657600080fd5b604051611054929190612431565b600060405180830381855af49150503d806000811461108f576040519150601f19603f3d011682016040523d82523d6000602084013e611094565b606091505b5091509150816110a357600080fd5b808484815181106110b057fe5b60209081029190910101525050600101610fe2565b5092915050565b806110d68161145b565b6110df57600080fd5b600082815260046020526040808220805460010190555183917fb757169b8492ca2f1c6619d9d76ce22803035c3b1d5f6930dffe7b127c1a198391a25050565b600081815260026020818152604092839020805484516001821615610100026000190190911693909304601f81018390048302840183019094528383526060939091830182828015610d045780601f10610cd957610100808354040283529160200191610d04565b600090815260096020526040902080546001909101549091565b826111ab8161145b565b6111b457600080fd5b60008481526003602090815260409182902080548351601f60026000196101006001861615020190931692909204918201849004840281018401909452808452606093928301828280156112495780601f1061121e57610100808354040283529160200191611249565b820191906000526020600020905b81548152906001019060200180831161122c57829003601f168201915b505050600088815260036020526040902092935061126c92915086905085611c04565b50847f8f15ed4b723ef428f250961da8315675b507046737e19319fc1a4d81bfe87f858286866040516112a1939291906124ea565b60405180910390a25050505050565b816112ba8161145b565b6112c357600080fd5b6112d283603c6102fe856118d8565b505050565b826112e18161145b565b6112ea57600080fd5b60008481526007602090815260408083206001600160e01b0319871680855292529182902080546001600160a01b0319166001600160a01b038616179055905185907f7c69f06bea0bdef565b709e93a147836b0063ba2dd89f02d0b7e8d931e6a6daa90611359908690612455565b60405180910390a350505050565b600082815260016020818152604080842085855282529283902080548451600294821615610100026000190190911693909304601f810183900483028401830190945283835260609390918301828280156114035780601f106113d857610100808354040283529160200191611403565b820191906000526020600020905b8154815290600101906020018083116113e657829003601f168201915b5050505050905092915050565b600c60209081526000938452604080852082529284528284209052825290205460ff1681565b60006001600160e01b0319821663c869023360e01b1480610401575061040182611908565b600b546040516302571be360e01b815260009182916001600160a01b03909116906302571be390611490908690600401612490565b60206040518083038186803b1580156114a857600080fd5b505afa1580156114bc573d6000803e3d6000fd5b505050506040513d601f19601f820116820180604052506114e09190810190611e67565b90506001600160a01b038116331480610afa57506000838152600c602090815260408083206001600160a01b0385168452825280832033845290915290205460ff16915050919050565b611532611bb9565b82815260c081018290526108c8816117e6565b805151602090910151101590565b602081015181516060916104019161156b908261192d565b8451919063ffffffff61197416565b60a081015160c082015182516060926104019281900363ffffffff61197416565b600081518351148015610afa5750610afa83600084600087516119d6565b60008781526004602090815260409091205487519188019190912060606115e787878763ffffffff61197416565b905083156116e45760008a81526005602090815260408083208684528252808320858452825280832061ffff8c168452909152902054600260001961010060018416150201909116041561166f5760008a815260066020908152604080832086845282528083208584529091529020805461ffff19811661ffff918216600019019091161790555b60008a81526005602090815260408083208684528252808320858452825280832061ffff8c16845290915281206116a591611cf0565b897f03528ed0c2a3ebc993b12ce3c16bb382f9c7d88ef7d8a1bf290eaf35955a12078a8a6040516116d7929190612519565b60405180910390a26117da565b60008a81526005602090815260408083208684528252808320858452825280832061ffff8c168452909152902054600260001961010060018416150201909116046117615760008a815260066020908152604080832086845282528083208584529091529020805461ffff8082166001011661ffff199091161790555b60008a81526005602090815260408083208684528252808320858452825280832061ffff8c1684528252909120825161179c92840190611c82565b50897f52a608b3303a48862d07a73d82fa221318c0027fbbcfb1b2329bface3f19ff2b8a8a846040516117d193929190612539565b60405180910390a25b50505050505050505050565b60c081015160208201819052815151116117ff576118b6565b60006118138260000151836020015161192d565b602083015183519101915061182e908263ffffffff6119f916565b61ffff166040830152815160029190910190611850908263ffffffff6119f916565b61ffff166060830152815160029190910190611872908263ffffffff611a1916565b63ffffffff9081166080840152825160049290920191600091611898919084906119f916565b600283810160a086015261ffff9190911690920190910160c0830152505b50565b600081516014146118c957600080fd5b5060200151600160601b900490565b604080516014808252818301909252606091602082018180388339505050600160601b9290920260208301525090565b60006001600160e01b0319821663691f343160e01b1480610401575061040182611a3b565b6000815b8351811061193b57fe5b600061194d858363ffffffff611a7616565b60ff1691820160010191905080611964575061196a565b50611931565b9190910392915050565b60608351828401111561198657600080fd5b6060826040519080825280601f01601f1916602001820160405280156119b3576020820181803883390190505b509050602080820190868601016119cb828287611a94565b509095945050505050565b60006119e3848484611ad2565b6119ee878785611ad2565b149695505050505050565b60008251826002011115611a0c57600080fd5b50016002015161ffff1690565b60008251826004011115611a2c57600080fd5b50016004015163ffffffff1690565b6000604051611a499061244a565b60405180910390206001600160e01b031916826001600160e01b0319161480610401575061040182611aee565b6000828281518110611a8457fe5b016020015160f81c905092915050565b5b60208110611ab4578151835260209283019290910190601f1901611a95565b905182516020929092036101000a6000190180199091169116179052565b600083518284011115611ae457600080fd5b5091016020012090565b60006001600160e01b0319821663547d2b4160e11b1480611b1f57506001600160e01b03198216631711d8df60e21b145b8061040157506104018260006001600160e01b0319821663bc1c58d160e01b148061040157506104018260006001600160e01b03198216631d9dabef60e11b1480611b7a57506001600160e01b031982166378e5bf0360e11b145b8061040157506104018260006001600160e01b03198216631101d5ab60e11b148061040157506301ffc9a760e01b6001600160e01b0319831614610401565b6040518060e001604052806060815260200160008152602001600061ffff168152602001600061ffff168152602001600063ffffffff16815260200160008152602001600081525090565b828054600181600116156101000203166002900490600052602060002090601f016020900481019282601f10611c455782800160ff19823516178555611c72565b82800160010185558215611c72579182015b82811115611c72578235825591602001919060010190611c57565b50611c7e929150611d30565b5090565b828054600181600116156101000203166002900490600052602060002090601f016020900481019282601f10611cc357805160ff1916838001178555611c72565b82800160010185558215611c72579182015b82811115611c72578251825591602001919060010190611cd5565b50805460018160011615610100020316600290046000825580601f10611d1657506118b6565b601f0160209004906000526020600020908101906118b691905b611d4a91905b80821115611c7e5760008155600101611d36565b90565b80356108c881612674565b80516108c881612674565b60008083601f840112611d7557600080fd5b50813567ffffffffffffffff811115611d8d57600080fd5b6020830191508360208202830111156109e657600080fd5b80356108c881612688565b80356108c881612691565b80356108c88161269a565b60008083601f840112611dd857600080fd5b50813567ffffffffffffffff811115611df057600080fd5b6020830191508360018202830111156109e657600080fd5b600082601f830112611e1957600080fd5b8135611e2c611e27826125b2565b61258b565b91508082526020830160208301858383011115611e4857600080fd5b611e5383828461262e565b50505092915050565b80356108c8816126a3565b600060208284031215611e7957600080fd5b6000611e858484611d58565b949350505050565b60008060208385031215611ea057600080fd5b823567ffffffffffffffff811115611eb757600080fd5b611ec385828601611d63565b92509250509250929050565b600060208284031215611ee157600080fd5b6000611e858484611db0565b60008060408385031215611f0057600080fd5b6000611f0c8585611db0565b9250506020611f1d85828601611d4d565b9150509250929050565b600080600060608486031215611f3c57600080fd5b6000611f488686611db0565b9350506020611f5986828701611d4d565b9250506040611f6a86828701611d4d565b9150509250925092565b600080600060608486031215611f8957600080fd5b6000611f958686611db0565b9350506020611fa686828701611d4d565b9250506040611f6a86828701611da5565b60008060408385031215611fca57600080fd5b6000611fd68585611db0565b9250506020611f1d85828601611db0565b600080600060608486031215611ffc57600080fd5b60006120088686611db0565b935050602061201986828701611db0565b9250506040611f6a86828701611db0565b60008060006060848603121561203f57600080fd5b600061204b8686611db0565b935050602061205c86828701611db0565b9250506040611f6a86828701611e5c565b6000806040838503121561208057600080fd5b600061208c8585611db0565b9250506020611f1d85828601611dbb565b6000806000606084860312156120b257600080fd5b60006120be8686611db0565b9350506020611f5986828701611dbb565b6000806000604084860312156120e457600080fd5b60006120f08686611db0565b935050602084013567ffffffffffffffff81111561210d57600080fd5b61211986828701611dc6565b92509250509250925092565b60008060008060006060868803121561213d57600080fd5b60006121498888611db0565b955050602086013567ffffffffffffffff81111561216657600080fd5b61217288828901611dc6565b9450945050604086013567ffffffffffffffff81111561219157600080fd5b61219d88828901611dc6565b92509250509295509295909350565b600080600080606085870312156121c257600080fd5b60006121ce8787611db0565b94505060206121df87828801611db0565b935050604085013567ffffffffffffffff8111156121fc57600080fd5b61220887828801611dc6565b95989497509550505050565b60008060006060848603121561222957600080fd5b60006122358686611db0565b935050602061224686828701611db0565b925050604084013567ffffffffffffffff81111561226357600080fd5b611f6a86828701611e08565b60006020828403121561228157600080fd5b6000611e858484611dbb565b6000610afa8383612385565b6122a28161261d565b82525050565b6122a2816125ed565b60006122bc826125e0565b6122c681856125e4565b9350836020820285016122d8856125da565b8060005b8581101561231257848403895281516122f5858261228d565b9450612300836125da565b60209a909a01999250506001016122dc565b5091979650505050505050565b6122a2816125f8565b6122a281611d4a565b6122a2816125fd565b600061234683856125e4565b935061235383858461262e565b61235c8361266a565b9093019392505050565b60006123728385610404565b935061237f83858461262e565b50500190565b6000612390826125e0565b61239a81856125e4565b93506123aa81856020860161263a565b61235c8161266a565b60006123be826125e0565b6123c88185610404565b93506123d881856020860161263a565b9290920192915050565b60006123ef602483610404565b7f696e74657266616365496d706c656d656e74657228627974657333322c6279748152636573342960e01b602082015260240192915050565b6122a28161260a565b6000611e85828486612366565b6000610afa82846123b3565b60006108c8826123e2565b602081016108c882846122a8565b602081016108c88284612299565b60208082528101610afa81846122b1565b602081016108c8828461231f565b602081016108c88284612328565b604081016124ac8285612328565b610afa6020830184612328565b602081016108c88284612331565b60208082528101611e8581848661233a565b60208082528101610afa8184612385565b604080825281016124fb8186612385565b9050818103602083015261251081848661233a565b95945050505050565b6040808252810161252a8185612385565b9050610afa6020830184612428565b6060808252810161254a8186612385565b90506125596020830185612428565b81810360408301526125108184612385565b604081016125798285612328565b8181036020830152611e858184612385565b60405181810167ffffffffffffffff811182821017156125aa57600080fd5b604052919050565b600067ffffffffffffffff8211156125c957600080fd5b506020601f91909101601f19160190565b60200190565b5190565b90815260200190565b600061040182612611565b151590565b6001600160e01b03191690565b61ffff1690565b6001600160a01b031690565b6000610401826000610401826125ed565b82818337506000910152565b60005b8381101561265557818101518382015260200161263d565b83811115612664576000848401525b50505050565b601f01601f191690565b61267d816125ed565b81146118b657600080fd5b61267d816125f8565b61267d81611d4a565b61267d816125fd565b61267d8161260a56fea365627a7a723158207e8a4f9aaee6985411ba119ca2958b27a819c00ace256eae5fd63978dd0271c16c6578706572696d656e74616cf564736f6c63430005100040",
  "source": "\n// File: @ensdomains/ens/contracts/ENS.sol\n\npragma solidity >=0.4.24;\n\ninterface ENS {\n\n    // Logged when the owner of a node assigns a new owner to a subnode.\n    event NewOwner(bytes32 indexed node, bytes32 indexed label, address owner);\n\n    // Logged when the owner of a node transfers ownership to a new account.\n    event Transfer(bytes32 indexed node, address owner);\n\n    // Logged when the resolver for a node changes.\n    event NewResolver(bytes32 indexed node, address resolver);\n\n    // Logged when the TTL of a node changes\n    event NewTTL(bytes32 indexed node, uint64 ttl);\n\n    // Logged when an operator is added or removed.\n    event ApprovalForAll(address indexed owner, address indexed operator, bool approved);\n\n    function setRecord(bytes32 node, address owner, address resolver, uint64 ttl) external;\n    function setSubnodeRecord(bytes32 node, bytes32 label, address owner, address resolver, uint64 ttl) external;\n    function setSubnodeOwner(bytes32 node, bytes32 label, address owner) external returns(bytes32);\n    function setResolver(bytes32 node, address resolver) external;\n    function setOwner(bytes32 node, address owner) external;\n    function setTTL(bytes32 node, uint64 ttl) external;\n    function setApprovalForAll(address operator, bool approved) external;\n    function owner(bytes32 node) external view returns (address);\n    function resolver(bytes32 node) external view returns (address);\n    function ttl(bytes32 node) external view returns (uint64);\n    function recordExists(bytes32 node) external view returns (bool);\n    function isApprovedForAll(address owner, address operator) external view returns (bool);\n}\n\n// File: contracts/ResolverBase.sol\n\npragma solidity ^0.5.0;\n\ncontract ResolverBase {\n    bytes4 private constant INTERFACE_META_ID = 0x01ffc9a7;\n\n    function supportsInterface(bytes4 interfaceID) public pure returns(bool) {\n        return interfaceID == INTERFACE_META_ID;\n    }\n\n    function isAuthorised(bytes32 node) internal view returns(bool);\n\n    modifier authorised(bytes32 node) {\n        require(isAuthorised(node));\n        _;\n    }\n\n    function bytesToAddress(bytes memory b) internal pure returns(address payable a) {\n        require(b.length == 20);\n        assembly {\n            a := div(mload(add(b, 32)), exp(256, 12))\n        }\n    }\n\n    function addressToBytes(address a) internal pure returns(bytes memory b) {\n        b = new bytes(20);\n        assembly {\n            mstore(add(b, 32), mul(a, exp(256, 12)))\n        }\n    }\n}\n\n// File: contracts/profiles/ABIResolver.sol\n\npragma solidity ^0.5.0;\n\n\ncontract ABIResolver is ResolverBase {\n    bytes4 constant private ABI_INTERFACE_ID = 0x2203ab56;\n\n    event ABIChanged(bytes32 indexed node, uint256 indexed contentType);\n\n    mapping(bytes32=>mapping(uint256=>bytes)) abis;\n\n    /**\n     * Sets the ABI associated with an ENS node.\n     * Nodes may have one ABI of each content type. To remove an ABI, set it to\n     * the empty string.\n     * @param node The node to update.\n     * @param contentType The content type of the ABI\n     * @param data The ABI data.\n     */\n    function setABI(bytes32 node, uint256 contentType, bytes calldata data) external authorised(node) {\n        // Content types must be powers of 2\n        require(((contentType - 1) & contentType) == 0);\n\n        abis[node][contentType] = data;\n        emit ABIChanged(node, contentType);\n    }\n\n    /**\n     * Returns the ABI associated with an ENS node.\n     * Defined in EIP205.\n     * @param node The ENS node to query\n     * @param contentTypes A bitwise OR of the ABI formats accepted by the caller.\n     * @return contentType The content type of the return value\n     * @return data The ABI data\n     */\n    function ABI(bytes32 node, uint256 contentTypes) external view returns (uint256, bytes memory) {\n        mapping(uint256=>bytes) storage abiset = abis[node];\n\n        for (uint256 contentType = 1; contentType <= contentTypes; contentType <<= 1) {\n            if ((contentType & contentTypes) != 0 && abiset[contentType].length > 0) {\n                return (contentType, abiset[contentType]);\n            }\n        }\n\n        return (0, bytes(\"\"));\n    }\n\n    function supportsInterface(bytes4 interfaceID) public pure returns(bool) {\n        return interfaceID == ABI_INTERFACE_ID || super.supportsInterface(interfaceID);\n    }\n}\n\n// File: contracts/profiles/AddrResolver.sol\n\npragma solidity ^0.5.0;\n\n\ncontract AddrResolver is ResolverBase {\n    bytes4 constant private ADDR_INTERFACE_ID = 0x3b3b57de;\n    bytes4 constant private ADDRESS_INTERFACE_ID = 0xf1cb7e06;\n    uint constant private COIN_TYPE_ETH = 60;\n\n    event AddrChanged(bytes32 indexed node, address a);\n    event AddressChanged(bytes32 indexed node, uint coinType, bytes newAddress);\n\n    mapping(bytes32=>mapping(uint=>bytes)) _addresses;\n\n    /**\n     * Sets the address associated with an ENS node.\n     * May only be called by the owner of that node in the ENS registry.\n     * @param node The node to update.\n     * @param a The address to set.\n     */\n    function setAddr(bytes32 node, address a) external authorised(node) {\n        setAddr(node, COIN_TYPE_ETH, addressToBytes(a));\n    }\n\n    /**\n     * Returns the address associated with an ENS node.\n     * @param node The ENS node to query.\n     * @return The associated address.\n     */\n    function addr(bytes32 node) public view returns (address payable) {\n        bytes memory a = addr(node, COIN_TYPE_ETH);\n        if(a.length == 0) {\n            return address(0);\n        }\n        return bytesToAddress(a);\n    }\n\n    function setAddr(bytes32 node, uint coinType, bytes memory a) public authorised(node) {\n        emit AddressChanged(node, coinType, a);\n        if(coinType == COIN_TYPE_ETH) {\n            emit AddrChanged(node, bytesToAddress(a));\n        }\n        _addresses[node][coinType] = a;\n    }\n\n    function addr(bytes32 node, uint coinType) public view returns(bytes memory) {\n        return _addresses[node][coinType];\n    }\n\n    function supportsInterface(bytes4 interfaceID) public pure returns(bool) {\n        return interfaceID == ADDR_INTERFACE_ID || interfaceID == ADDRESS_INTERFACE_ID || super.supportsInterface(interfaceID);\n    }\n}\n\n// File: contracts/profiles/ContentHashResolver.sol\n\npragma solidity ^0.5.0;\n\n\ncontract ContentHashResolver is ResolverBase {\n    bytes4 constant private CONTENT_HASH_INTERFACE_ID = 0xbc1c58d1;\n\n    event ContenthashChanged(bytes32 indexed node, bytes hash);\n\n    mapping(bytes32=>bytes) hashes;\n\n    /**\n     * Sets the contenthash associated with an ENS node.\n     * May only be called by the owner of that node in the ENS registry.\n     * @param node The node to update.\n     * @param hash The contenthash to set\n     */\n    function setContenthash(bytes32 node, bytes calldata hash) external authorised(node) {\n        hashes[node] = hash;\n        emit ContenthashChanged(node, hash);\n    }\n\n    /**\n     * Returns the contenthash associated with an ENS node.\n     * @param node The ENS node to query.\n     * @return The associated contenthash.\n     */\n    function contenthash(bytes32 node) external view returns (bytes memory) {\n        return hashes[node];\n    }\n\n    function supportsInterface(bytes4 interfaceID) public pure returns(bool) {\n        return interfaceID == CONTENT_HASH_INTERFACE_ID || super.supportsInterface(interfaceID);\n    }\n}\n\n// File: @ensdomains/dnssec-oracle/contracts/BytesUtils.sol\n\npragma solidity >0.4.23;\n\nlibrary BytesUtils {\n    /*\n    * @dev Returns the keccak-256 hash of a byte range.\n    * @param self The byte string to hash.\n    * @param offset The position to start hashing at.\n    * @param len The number of bytes to hash.\n    * @return The hash of the byte range.\n    */\n    function keccak(bytes memory self, uint offset, uint len) internal pure returns (bytes32 ret) {\n        require(offset + len <= self.length);\n        assembly {\n            ret := keccak256(add(add(self, 32), offset), len)\n        }\n    }\n\n\n    /*\n    * @dev Returns a positive number if `other` comes lexicographically after\n    *      `self`, a negative number if it comes before, or zero if the\n    *      contents of the two bytes are equal.\n    * @param self The first bytes to compare.\n    * @param other The second bytes to compare.\n    * @return The result of the comparison.\n    */\n    function compare(bytes memory self, bytes memory other) internal pure returns (int) {\n        return compare(self, 0, self.length, other, 0, other.length);\n    }\n\n    /*\n    * @dev Returns a positive number if `other` comes lexicographically after\n    *      `self`, a negative number if it comes before, or zero if the\n    *      contents of the two bytes are equal. Comparison is done per-rune,\n    *      on unicode codepoints.\n    * @param self The first bytes to compare.\n    * @param offset The offset of self.\n    * @param len    The length of self.\n    * @param other The second bytes to compare.\n    * @param otheroffset The offset of the other string.\n    * @param otherlen    The length of the other string.\n    * @return The result of the comparison.\n    */\n    function compare(bytes memory self, uint offset, uint len, bytes memory other, uint otheroffset, uint otherlen) internal pure returns (int) {\n        uint shortest = len;\n        if (otherlen < len)\n        shortest = otherlen;\n\n        uint selfptr;\n        uint otherptr;\n\n        assembly {\n            selfptr := add(self, add(offset, 32))\n            otherptr := add(other, add(otheroffset, 32))\n        }\n        for (uint idx = 0; idx < shortest; idx += 32) {\n            uint a;\n            uint b;\n            assembly {\n                a := mload(selfptr)\n                b := mload(otherptr)\n            }\n            if (a != b) {\n                // Mask out irrelevant bytes and check again\n                uint mask;\n                if (shortest > 32) {\n                    mask = uint256(- 1); // aka 0xffffff....\n                } else {\n                    mask = ~(2 ** (8 * (32 - shortest + idx)) - 1);\n                }\n                uint diff = (a & mask) - (b & mask);\n                if (diff != 0)\n                return int(diff);\n            }\n            selfptr += 32;\n            otherptr += 32;\n        }\n\n        return int(len) - int(otherlen);\n    }\n\n    /*\n    * @dev Returns true if the two byte ranges are equal.\n    * @param self The first byte range to compare.\n    * @param offset The offset into the first byte range.\n    * @param other The second byte range to compare.\n    * @param otherOffset The offset into the second byte range.\n    * @param len The number of bytes to compare\n    * @return True if the byte ranges are equal, false otherwise.\n    */\n    function equals(bytes memory self, uint offset, bytes memory other, uint otherOffset, uint len) internal pure returns (bool) {\n        return keccak(self, offset, len) == keccak(other, otherOffset, len);\n    }\n\n    /*\n    * @dev Returns true if the two byte ranges are equal with offsets.\n    * @param self The first byte range to compare.\n    * @param offset The offset into the first byte range.\n    * @param other The second byte range to compare.\n    * @param otherOffset The offset into the second byte range.\n    * @return True if the byte ranges are equal, false otherwise.\n    */\n    function equals(bytes memory self, uint offset, bytes memory other, uint otherOffset) internal pure returns (bool) {\n        return keccak(self, offset, self.length - offset) == keccak(other, otherOffset, other.length - otherOffset);\n    }\n\n    /*\n    * @dev Compares a range of 'self' to all of 'other' and returns True iff\n    *      they are equal.\n    * @param self The first byte range to compare.\n    * @param offset The offset into the first byte range.\n    * @param other The second byte range to compare.\n    * @return True if the byte ranges are equal, false otherwise.\n    */\n    function equals(bytes memory self, uint offset, bytes memory other) internal pure returns (bool) {\n        return self.length >= offset + other.length && equals(self, offset, other, 0, other.length);\n    }\n\n    /*\n    * @dev Returns true if the two byte ranges are equal.\n    * @param self The first byte range to compare.\n    * @param other The second byte range to compare.\n    * @return True if the byte ranges are equal, false otherwise.\n    */\n    function equals(bytes memory self, bytes memory other) internal pure returns(bool) {\n        return self.length == other.length && equals(self, 0, other, 0, self.length);\n    }\n\n    /*\n    * @dev Returns the 8-bit number at the specified index of self.\n    * @param self The byte string.\n    * @param idx The index into the bytes\n    * @return The specified 8 bits of the string, interpreted as an integer.\n    */\n    function readUint8(bytes memory self, uint idx) internal pure returns (uint8 ret) {\n        return uint8(self[idx]);\n    }\n\n    /*\n    * @dev Returns the 16-bit number at the specified index of self.\n    * @param self The byte string.\n    * @param idx The index into the bytes\n    * @return The specified 16 bits of the string, interpreted as an integer.\n    */\n    function readUint16(bytes memory self, uint idx) internal pure returns (uint16 ret) {\n        require(idx + 2 <= self.length);\n        assembly {\n            ret := and(mload(add(add(self, 2), idx)), 0xFFFF)\n        }\n    }\n\n    /*\n    * @dev Returns the 32-bit number at the specified index of self.\n    * @param self The byte string.\n    * @param idx The index into the bytes\n    * @return The specified 32 bits of the string, interpreted as an integer.\n    */\n    function readUint32(bytes memory self, uint idx) internal pure returns (uint32 ret) {\n        require(idx + 4 <= self.length);\n        assembly {\n            ret := and(mload(add(add(self, 4), idx)), 0xFFFFFFFF)\n        }\n    }\n\n    /*\n    * @dev Returns the 32 byte value at the specified index of self.\n    * @param self The byte string.\n    * @param idx The index into the bytes\n    * @return The specified 32 bytes of the string.\n    */\n    function readBytes32(bytes memory self, uint idx) internal pure returns (bytes32 ret) {\n        require(idx + 32 <= self.length);\n        assembly {\n            ret := mload(add(add(self, 32), idx))\n        }\n    }\n\n    /*\n    * @dev Returns the 32 byte value at the specified index of self.\n    * @param self The byte string.\n    * @param idx The index into the bytes\n    * @return The specified 32 bytes of the string.\n    */\n    function readBytes20(bytes memory self, uint idx) internal pure returns (bytes20 ret) {\n        require(idx + 20 <= self.length);\n        assembly {\n            ret := and(mload(add(add(self, 32), idx)), 0xFFFFFFFFFFFFFFFFFFFFFFFFFFFFFFFFFFFFFFFF000000000000000000000000)\n        }\n    }\n\n    /*\n    * @dev Returns the n byte value at the specified index of self.\n    * @param self The byte string.\n    * @param idx The index into the bytes.\n    * @param len The number of bytes.\n    * @return The specified 32 bytes of the string.\n    */\n    function readBytesN(bytes memory self, uint idx, uint len) internal pure returns (bytes32 ret) {\n        require(len <= 32);\n        require(idx + len <= self.length);\n        assembly {\n            let mask := not(sub(exp(256, sub(32, len)), 1))\n            ret := and(mload(add(add(self, 32), idx)),  mask)\n        }\n    }\n\n    function memcpy(uint dest, uint src, uint len) private pure {\n        // Copy word-length chunks while possible\n        for (; len >= 32; len -= 32) {\n            assembly {\n                mstore(dest, mload(src))\n            }\n            dest += 32;\n            src += 32;\n        }\n\n        // Copy remaining bytes\n        uint mask = 256 ** (32 - len) - 1;\n        assembly {\n            let srcpart := and(mload(src), not(mask))\n            let destpart := and(mload(dest), mask)\n            mstore(dest, or(destpart, srcpart))\n        }\n    }\n\n    /*\n    * @dev Copies a substring into a new byte string.\n    * @param self The byte string to copy from.\n    * @param offset The offset to start copying at.\n    * @param len The number of bytes to copy.\n    */\n    function substring(bytes memory self, uint offset, uint len) internal pure returns(bytes memory) {\n        require(offset + len <= self.length);\n\n        bytes memory ret = new bytes(len);\n        uint dest;\n        uint src;\n\n        assembly {\n            dest := add(ret, 32)\n            src := add(add(self, 32), offset)\n        }\n        memcpy(dest, src, len);\n\n        return ret;\n    }\n\n    // Maps characters from 0x30 to 0x7A to their base32 values.\n    // 0xFF represents invalid characters in that range.\n    bytes constant base32HexTable = hex'00010203040506070809FFFFFFFFFFFFFF0A0B0C0D0E0F101112131415161718191A1B1C1D1E1FFFFFFFFFFFFFFFFFFFFF0A0B0C0D0E0F101112131415161718191A1B1C1D1E1F';\n\n    /**\n     * @dev Decodes unpadded base32 data of up to one word in length.\n     * @param self The data to decode.\n     * @param off Offset into the string to start at.\n     * @param len Number of characters to decode.\n     * @return The decoded data, left aligned.\n     */\n    function base32HexDecodeWord(bytes memory self, uint off, uint len) internal pure returns(bytes32) {\n        require(len <= 52);\n\n        uint ret = 0;\n        uint8 decoded;\n        for(uint i = 0; i < len; i++) {\n            bytes1 char = self[off + i];\n            require(char >= 0x30 && char <= 0x7A);\n            decoded = uint8(base32HexTable[uint(uint8(char)) - 0x30]);\n            require(decoded <= 0x20);\n            if(i == len - 1) {\n                break;\n            }\n            ret = (ret << 5) | decoded;\n        }\n\n        uint bitlen = len * 5;\n        if(len % 8 == 0) {\n            // Multiple of 8 characters, no padding\n            ret = (ret << 5) | decoded;\n        } else if(len % 8 == 2) {\n            // Two extra characters - 1 byte\n            ret = (ret << 3) | (decoded >> 2);\n            bitlen -= 2;\n        } else if(len % 8 == 4) {\n            // Four extra characters - 2 bytes\n            ret = (ret << 1) | (decoded >> 4);\n            bitlen -= 4;\n        } else if(len % 8 == 5) {\n            // Five extra characters - 3 bytes\n            ret = (ret << 4) | (decoded >> 1);\n            bitlen -= 1;\n        } else if(len % 8 == 7) {\n            // Seven extra characters - 4 bytes\n            ret = (ret << 2) | (decoded >> 3);\n            bitlen -= 3;\n        } else {\n            revert();\n        }\n\n        return bytes32(ret << (256 - bitlen));\n    }\n}\n\n// File: @ensdomains/buffer/contracts/Buffer.sol\n\npragma solidity >0.4.18;\n\n/**\n* @dev A library for working with mutable byte buffers in Solidity.\n*\n* Byte buffers are mutable and expandable, and provide a variety of primitives\n* for writing to them. At any time you can fetch a bytes object containing the\n* current contents of the buffer. The bytes object should not be stored between\n* operations, as it may change due to resizing of the buffer.\n*/\nlibrary Buffer {\n    /**\n    * @dev Represents a mutable buffer. Buffers have a current value (buf) and\n    *      a capacity. The capacity may be longer than the current value, in\n    *      which case it can be extended without the need to allocate more memory.\n    */\n    struct buffer {\n        bytes buf;\n        uint capacity;\n    }\n\n    /**\n    * @dev Initializes a buffer with an initial capacity.\n    * @param buf The buffer to initialize.\n    * @param capacity The number of bytes of space to allocate the buffer.\n    * @return The buffer, for chaining.\n    */\n    function init(buffer memory buf, uint capacity) internal pure returns(buffer memory) {\n        if (capacity % 32 != 0) {\n            capacity += 32 - (capacity % 32);\n        }\n        // Allocate space for the buffer data\n        buf.capacity = capacity;\n        assembly {\n            let ptr := mload(0x40)\n            mstore(buf, ptr)\n            mstore(ptr, 0)\n            mstore(0x40, add(32, add(ptr, capacity)))\n        }\n        return buf;\n    }\n\n    /**\n    * @dev Initializes a new buffer from an existing bytes object.\n    *      Changes to the buffer may mutate the original value.\n    * @param b The bytes object to initialize the buffer with.\n    * @return A new buffer.\n    */\n    function fromBytes(bytes memory b) internal pure returns(buffer memory) {\n        buffer memory buf;\n        buf.buf = b;\n        buf.capacity = b.length;\n        return buf;\n    }\n\n    function resize(buffer memory buf, uint capacity) private pure {\n        bytes memory oldbuf = buf.buf;\n        init(buf, capacity);\n        append(buf, oldbuf);\n    }\n\n    function max(uint a, uint b) private pure returns(uint) {\n        if (a > b) {\n            return a;\n        }\n        return b;\n    }\n\n    /**\n    * @dev Sets buffer length to 0.\n    * @param buf The buffer to truncate.\n    * @return The original buffer, for chaining..\n    */\n    function truncate(buffer memory buf) internal pure returns (buffer memory) {\n        assembly {\n            let bufptr := mload(buf)\n            mstore(bufptr, 0)\n        }\n        return buf;\n    }\n\n    /**\n    * @dev Writes a byte string to a buffer. Resizes if doing so would exceed\n    *      the capacity of the buffer.\n    * @param buf The buffer to append to.\n    * @param off The start offset to write to.\n    * @param data The data to append.\n    * @param len The number of bytes to copy.\n    * @return The original buffer, for chaining.\n    */\n    function write(buffer memory buf, uint off, bytes memory data, uint len) internal pure returns(buffer memory) {\n        require(len <= data.length);\n\n        if (off + len > buf.capacity) {\n            resize(buf, max(buf.capacity, len + off) * 2);\n        }\n\n        uint dest;\n        uint src;\n        assembly {\n            // Memory address of the buffer data\n            let bufptr := mload(buf)\n            // Length of existing buffer data\n            let buflen := mload(bufptr)\n            // Start address = buffer address + offset + sizeof(buffer length)\n            dest := add(add(bufptr, 32), off)\n            // Update buffer length if we're extending it\n            if gt(add(len, off), buflen) {\n                mstore(bufptr, add(len, off))\n            }\n            src := add(data, 32)\n        }\n\n        // Copy word-length chunks while possible\n        for (; len >= 32; len -= 32) {\n            assembly {\n                mstore(dest, mload(src))\n            }\n            dest += 32;\n            src += 32;\n        }\n\n        // Copy remaining bytes\n        uint mask = 256 ** (32 - len) - 1;\n        assembly {\n            let srcpart := and(mload(src), not(mask))\n            let destpart := and(mload(dest), mask)\n            mstore(dest, or(destpart, srcpart))\n        }\n\n        return buf;\n    }\n\n    /**\n    * @dev Appends a byte string to a buffer. Resizes if doing so would exceed\n    *      the capacity of the buffer.\n    * @param buf The buffer to append to.\n    * @param data The data to append.\n    * @param len The number of bytes to copy.\n    * @return The original buffer, for chaining.\n    */\n    function append(buffer memory buf, bytes memory data, uint len) internal pure returns (buffer memory) {\n        return write(buf, buf.buf.length, data, len);\n    }\n\n    /**\n    * @dev Appends a byte string to a buffer. Resizes if doing so would exceed\n    *      the capacity of the buffer.\n    * @param buf The buffer to append to.\n    * @param data The data to append.\n    * @return The original buffer, for chaining.\n    */\n    function append(buffer memory buf, bytes memory data) internal pure returns (buffer memory) {\n        return write(buf, buf.buf.length, data, data.length);\n    }\n\n    /**\n    * @dev Writes a byte to the buffer. Resizes if doing so would exceed the\n    *      capacity of the buffer.\n    * @param buf The buffer to append to.\n    * @param off The offset to write the byte at.\n    * @param data The data to append.\n    * @return The original buffer, for chaining.\n    */\n    function writeUint8(buffer memory buf, uint off, uint8 data) internal pure returns(buffer memory) {\n        if (off >= buf.capacity) {\n            resize(buf, buf.capacity * 2);\n        }\n\n        assembly {\n            // Memory address of the buffer data\n            let bufptr := mload(buf)\n            // Length of existing buffer data\n            let buflen := mload(bufptr)\n            // Address = buffer address + sizeof(buffer length) + off\n            let dest := add(add(bufptr, off), 32)\n            mstore8(dest, data)\n            // Update buffer length if we extended it\n            if eq(off, buflen) {\n                mstore(bufptr, add(buflen, 1))\n            }\n        }\n        return buf;\n    }\n\n    /**\n    * @dev Appends a byte to the buffer. Resizes if doing so would exceed the\n    *      capacity of the buffer.\n    * @param buf The buffer to append to.\n    * @param data The data to append.\n    * @return The original buffer, for chaining.\n    */\n    function appendUint8(buffer memory buf, uint8 data) internal pure returns(buffer memory) {\n        return writeUint8(buf, buf.buf.length, data);\n    }\n\n    /**\n    * @dev Writes up to 32 bytes to the buffer. Resizes if doing so would\n    *      exceed the capacity of the buffer.\n    * @param buf The buffer to append to.\n    * @param off The offset to write at.\n    * @param data The data to append.\n    * @param len The number of bytes to write (left-aligned).\n    * @return The original buffer, for chaining.\n    */\n    function write(buffer memory buf, uint off, bytes32 data, uint len) private pure returns(buffer memory) {\n        if (len + off > buf.capacity) {\n            resize(buf, (len + off) * 2);\n        }\n\n        uint mask = 256 ** len - 1;\n        // Right-align data\n        data = data >> (8 * (32 - len));\n        assembly {\n            // Memory address of the buffer data\n            let bufptr := mload(buf)\n            // Address = buffer address + sizeof(buffer length) + off + len\n            let dest := add(add(bufptr, off), len)\n            mstore(dest, or(and(mload(dest), not(mask)), data))\n            // Update buffer length if we extended it\n            if gt(add(off, len), mload(bufptr)) {\n                mstore(bufptr, add(off, len))\n            }\n        }\n        return buf;\n    }\n\n    /**\n    * @dev Writes a bytes20 to the buffer. Resizes if doing so would exceed the\n    *      capacity of the buffer.\n    * @param buf The buffer to append to.\n    * @param off The offset to write at.\n    * @param data The data to append.\n    * @return The original buffer, for chaining.\n    */\n    function writeBytes20(buffer memory buf, uint off, bytes20 data) internal pure returns (buffer memory) {\n        return write(buf, off, bytes32(data), 20);\n    }\n\n    /**\n    * @dev Appends a bytes20 to the buffer. Resizes if doing so would exceed\n    *      the capacity of the buffer.\n    * @param buf The buffer to append to.\n    * @param data The data to append.\n    * @return The original buffer, for chhaining.\n    */\n    function appendBytes20(buffer memory buf, bytes20 data) internal pure returns (buffer memory) {\n        return write(buf, buf.buf.length, bytes32(data), 20);\n    }\n\n    /**\n    * @dev Appends a bytes32 to the buffer. Resizes if doing so would exceed\n    *      the capacity of the buffer.\n    * @param buf The buffer to append to.\n    * @param data The data to append.\n    * @return The original buffer, for chaining.\n    */\n    function appendBytes32(buffer memory buf, bytes32 data) internal pure returns (buffer memory) {\n        return write(buf, buf.buf.length, data, 32);\n    }\n\n    /**\n    * @dev Writes an integer to the buffer. Resizes if doing so would exceed\n    *      the capacity of the buffer.\n    * @param buf The buffer to append to.\n    * @param off The offset to write at.\n    * @param data The data to append.\n    * @param len The number of bytes to write (right-aligned).\n    * @return The original buffer, for chaining.\n    */\n    function writeInt(buffer memory buf, uint off, uint data, uint len) private pure returns(buffer memory) {\n        if (len + off > buf.capacity) {\n            resize(buf, (len + off) * 2);\n        }\n\n        uint mask = 256 ** len - 1;\n        assembly {\n            // Memory address of the buffer data\n            let bufptr := mload(buf)\n            // Address = buffer address + off + sizeof(buffer length) + len\n            let dest := add(add(bufptr, off), len)\n            mstore(dest, or(and(mload(dest), not(mask)), data))\n            // Update buffer length if we extended it\n            if gt(add(off, len), mload(bufptr)) {\n                mstore(bufptr, add(off, len))\n            }\n        }\n        return buf;\n    }\n\n    /**\n     * @dev Appends a byte to the end of the buffer. Resizes if doing so would\n     * exceed the capacity of the buffer.\n     * @param buf The buffer to append to.\n     * @param data The data to append.\n     * @return The original buffer.\n     */\n    function appendInt(buffer memory buf, uint data, uint len) internal pure returns(buffer memory) {\n        return writeInt(buf, buf.buf.length, data, len);\n    }\n}\n\n// File: @ensdomains/dnssec-oracle/contracts/RRUtils.sol\n\npragma solidity >0.4.23;\n\n\n\n/**\n* @dev RRUtils is a library that provides utilities for parsing DNS resource records.\n*/\nlibrary RRUtils {\n    using BytesUtils for *;\n    using Buffer for *;\n\n    /**\n    * @dev Returns the number of bytes in the DNS name at 'offset' in 'self'.\n    * @param self The byte array to read a name from.\n    * @param offset The offset to start reading at.\n    * @return The length of the DNS name at 'offset', in bytes.\n    */\n    function nameLength(bytes memory self, uint offset) internal pure returns(uint) {\n        uint idx = offset;\n        while (true) {\n            assert(idx < self.length);\n            uint labelLen = self.readUint8(idx);\n            idx += labelLen + 1;\n            if (labelLen == 0) {\n                break;\n            }\n        }\n        return idx - offset;\n    }\n\n    /**\n    * @dev Returns a DNS format name at the specified offset of self.\n    * @param self The byte array to read a name from.\n    * @param offset The offset to start reading at.\n    * @return The name.\n    */\n    function readName(bytes memory self, uint offset) internal pure returns(bytes memory ret) {\n        uint len = nameLength(self, offset);\n        return self.substring(offset, len);\n    }\n\n    /**\n    * @dev Returns the number of labels in the DNS name at 'offset' in 'self'.\n    * @param self The byte array to read a name from.\n    * @param offset The offset to start reading at.\n    * @return The number of labels in the DNS name at 'offset', in bytes.\n    */\n    function labelCount(bytes memory self, uint offset) internal pure returns(uint) {\n        uint count = 0;\n        while (true) {\n            assert(offset < self.length);\n            uint labelLen = self.readUint8(offset);\n            offset += labelLen + 1;\n            if (labelLen == 0) {\n                break;\n            }\n            count += 1;\n        }\n        return count;\n    }\n\n    /**\n    * @dev An iterator over resource records.\n    */\n    struct RRIterator {\n        bytes data;\n        uint offset;\n        uint16 dnstype;\n        uint16 class;\n        uint32 ttl;\n        uint rdataOffset;\n        uint nextOffset;\n    }\n\n    /**\n    * @dev Begins iterating over resource records.\n    * @param self The byte string to read from.\n    * @param offset The offset to start reading at.\n    * @return An iterator object.\n    */\n    function iterateRRs(bytes memory self, uint offset) internal pure returns (RRIterator memory ret) {\n        ret.data = self;\n        ret.nextOffset = offset;\n        next(ret);\n    }\n\n    /**\n    * @dev Returns true iff there are more RRs to iterate.\n    * @param iter The iterator to check.\n    * @return True iff the iterator has finished.\n    */\n    function done(RRIterator memory iter) internal pure returns(bool) {\n        return iter.offset >= iter.data.length;\n    }\n\n    /**\n    * @dev Moves the iterator to the next resource record.\n    * @param iter The iterator to advance.\n    */\n    function next(RRIterator memory iter) internal pure {\n        iter.offset = iter.nextOffset;\n        if (iter.offset >= iter.data.length) {\n            return;\n        }\n\n        // Skip the name\n        uint off = iter.offset + nameLength(iter.data, iter.offset);\n\n        // Read type, class, and ttl\n        iter.dnstype = iter.data.readUint16(off);\n        off += 2;\n        iter.class = iter.data.readUint16(off);\n        off += 2;\n        iter.ttl = iter.data.readUint32(off);\n        off += 4;\n\n        // Read the rdata\n        uint rdataLength = iter.data.readUint16(off);\n        off += 2;\n        iter.rdataOffset = off;\n        iter.nextOffset = off + rdataLength;\n    }\n\n    /**\n    * @dev Returns the name of the current record.\n    * @param iter The iterator.\n    * @return A new bytes object containing the owner name from the RR.\n    */\n    function name(RRIterator memory iter) internal pure returns(bytes memory) {\n        return iter.data.substring(iter.offset, nameLength(iter.data, iter.offset));\n    }\n\n    /**\n    * @dev Returns the rdata portion of the current record.\n    * @param iter The iterator.\n    * @return A new bytes object containing the RR's RDATA.\n    */\n    function rdata(RRIterator memory iter) internal pure returns(bytes memory) {\n        return iter.data.substring(iter.rdataOffset, iter.nextOffset - iter.rdataOffset);\n    }\n\n    /**\n    * @dev Checks if a given RR type exists in a type bitmap.\n    * @param self The byte string to read the type bitmap from.\n    * @param offset The offset to start reading at.\n    * @param rrtype The RR type to check for.\n    * @return True if the type is found in the bitmap, false otherwise.\n    */\n    function checkTypeBitmap(bytes memory self, uint offset, uint16 rrtype) internal pure returns (bool) {\n        uint8 typeWindow = uint8(rrtype >> 8);\n        uint8 windowByte = uint8((rrtype & 0xff) / 8);\n        uint8 windowBitmask = uint8(uint8(1) << (uint8(7) - uint8(rrtype & 0x7)));\n        for (uint off = offset; off < self.length;) {\n            uint8 window = self.readUint8(off);\n            uint8 len = self.readUint8(off + 1);\n            if (typeWindow < window) {\n                // We've gone past our window; it's not here.\n                return false;\n            } else if (typeWindow == window) {\n                // Check this type bitmap\n                if (len * 8 <= windowByte) {\n                    // Our type is past the end of the bitmap\n                    return false;\n                }\n                return (self.readUint8(off + windowByte + 2) & windowBitmask) != 0;\n            } else {\n                // Skip this type bitmap\n                off += len + 2;\n            }\n        }\n\n        return false;\n    }\n\n    function compareNames(bytes memory self, bytes memory other) internal pure returns (int) {\n        if (self.equals(other)) {\n            return 0;\n        }\n\n        uint off;\n        uint otheroff;\n        uint prevoff;\n        uint otherprevoff;\n        uint counts = labelCount(self, 0);\n        uint othercounts = labelCount(other, 0);\n\n        // Keep removing labels from the front of the name until both names are equal length\n        while (counts > othercounts) {\n            prevoff = off;\n            off = progress(self, off);\n            counts--;\n        }\n\n        while (othercounts > counts) {\n            otherprevoff = otheroff;\n            otheroff = progress(other, otheroff);\n            othercounts--;\n        }\n\n        // Compare the last nonequal labels to each other\n        while (counts > 0 && !self.equals(off, other, otheroff)) {\n            prevoff = off;\n            off = progress(self, off);\n            otherprevoff = otheroff;\n            otheroff = progress(other, otheroff);\n            counts -= 1;\n        }\n\n        if (off == 0) {\n            return -1;\n        }\n        if(otheroff == 0) {\n            return 1;\n        }\n\n        return self.compare(prevoff + 1, self.readUint8(prevoff), other, otherprevoff + 1, other.readUint8(otherprevoff));\n    }\n\n    function progress(bytes memory body, uint off) internal pure returns(uint) {\n        return off + 1 + body.readUint8(off);\n    }\n}\n\n// File: contracts/profiles/DNSResolver.sol\n\npragma solidity ^0.5.0;\n\n\n\ncontract DNSResolver is ResolverBase {\n    using RRUtils for *;\n    using BytesUtils for bytes;\n\n    bytes4 constant private DNS_RECORD_INTERFACE_ID = 0xa8fa5682;\n    bytes4 constant private DNS_ZONE_INTERFACE_ID = 0x5c47637c;\n\n    // DNSRecordChanged is emitted whenever a given node/name/resource's RRSET is updated.\n    event DNSRecordChanged(bytes32 indexed node, bytes name, uint16 resource, bytes record);\n    // DNSRecordDeleted is emitted whenever a given node/name/resource's RRSET is deleted.\n    event DNSRecordDeleted(bytes32 indexed node, bytes name, uint16 resource);\n    // DNSZoneCleared is emitted whenever a given node's zone information is cleared.\n    event DNSZoneCleared(bytes32 indexed node);\n\n    // DNSZonehashChanged is emitted whenever a given node's zone hash is updated.\n    event DNSZonehashChanged(bytes32 indexed node, bytes lastzonehash, bytes zonehash);\n\n    // Zone hashes for the domains.\n    // A zone hash is an EIP-1577 content hash in binary format that should point to a\n    // resource containing a single zonefile.\n    // node => contenthash\n    mapping(bytes32=>bytes) private zonehashes;\n\n    // Version the mapping for each zone.  This allows users who have lost\n    // track of their entries to effectively delete an entire zone by bumping\n    // the version number.\n    // node => version\n    mapping(bytes32=>uint256) private versions;\n\n    // The records themselves.  Stored as binary RRSETs\n    // node => version => name => resource => data\n    mapping(bytes32=>mapping(uint256=>mapping(bytes32=>mapping(uint16=>bytes)))) private records;\n\n    // Count of number of entries for a given name.  Required for DNS resolvers\n    // when resolving wildcards.\n    // node => version => name => number of records\n    mapping(bytes32=>mapping(uint256=>mapping(bytes32=>uint16))) private nameEntriesCount;\n\n    /**\n     * Set one or more DNS records.  Records are supplied in wire-format.\n     * Records with the same node/name/resource must be supplied one after the\n     * other to ensure the data is updated correctly. For example, if the data\n     * was supplied:\n     *     a.example.com IN A 1.2.3.4\n     *     a.example.com IN A 5.6.7.8\n     *     www.example.com IN CNAME a.example.com.\n     * then this would store the two A records for a.example.com correctly as a\n     * single RRSET, however if the data was supplied:\n     *     a.example.com IN A 1.2.3.4\n     *     www.example.com IN CNAME a.example.com.\n     *     a.example.com IN A 5.6.7.8\n     * then this would store the first A record, the CNAME, then the second A\n     * record which would overwrite the first.\n     *\n     * @param node the namehash of the node for which to set the records\n     * @param data the DNS wire format records to set\n     */\n    function setDNSRecords(bytes32 node, bytes calldata data) external authorised(node) {\n        uint16 resource = 0;\n        uint256 offset = 0;\n        bytes memory name;\n        bytes memory value;\n        bytes32 nameHash;\n        // Iterate over the data to add the resource records\n        for (RRUtils.RRIterator memory iter = data.iterateRRs(0); !iter.done(); iter.next()) {\n            if (resource == 0) {\n                resource = iter.dnstype;\n                name = iter.name();\n                nameHash = keccak256(abi.encodePacked(name));\n                value = bytes(iter.rdata());\n            } else {\n                bytes memory newName = iter.name();\n                if (resource != iter.dnstype || !name.equals(newName)) {\n                    setDNSRRSet(node, name, resource, data, offset, iter.offset - offset, value.length == 0);\n                    resource = iter.dnstype;\n                    offset = iter.offset;\n                    name = newName;\n                    nameHash = keccak256(name);\n                    value = bytes(iter.rdata());\n                }\n            }\n        }\n        if (name.length > 0) {\n            setDNSRRSet(node, name, resource, data, offset, data.length - offset, value.length == 0);\n        }\n    }\n\n    /**\n     * Obtain a DNS record.\n     * @param node the namehash of the node for which to fetch the record\n     * @param name the keccak-256 hash of the fully-qualified name for which to fetch the record\n     * @param resource the ID of the resource as per https://en.wikipedia.org/wiki/List_of_DNS_record_types\n     * @return the DNS record in wire format if present, otherwise empty\n     */\n    function dnsRecord(bytes32 node, bytes32 name, uint16 resource) public view returns (bytes memory) {\n        return records[node][versions[node]][name][resource];\n    }\n\n    /**\n     * Check if a given node has records.\n     * @param node the namehash of the node for which to check the records\n     * @param name the namehash of the node for which to check the records\n     */\n    function hasDNSRecords(bytes32 node, bytes32 name) public view returns (bool) {\n        return (nameEntriesCount[node][versions[node]][name] != 0);\n    }\n\n    /**\n     * Clear all information for a DNS zone.\n     * @param node the namehash of the node for which to clear the zone\n     */\n    function clearDNSZone(bytes32 node) public authorised(node) {\n        versions[node]++;\n        emit DNSZoneCleared(node);\n    }\n\n    /**\n     * setZonehash sets the hash for the zone.\n     * May only be called by the owner of that node in the ENS registry.\n     * @param node The node to update.\n     * @param hash The zonehash to set\n     */\n    function setZonehash(bytes32 node, bytes calldata hash) external authorised(node) {\n        bytes memory oldhash = zonehashes[node];\n        zonehashes[node] = hash;\n        emit DNSZonehashChanged(node, oldhash, hash);\n    }\n\n    /**\n     * zonehash obtains the hash for the zone.\n     * @param node The ENS node to query.\n     * @return The associated contenthash.\n     */\n    function zonehash(bytes32 node) external view returns (bytes memory) {\n        return zonehashes[node];\n    }\n\n    function supportsInterface(bytes4 interfaceID) public pure returns(bool) {\n        return interfaceID == DNS_RECORD_INTERFACE_ID ||\n               interfaceID == DNS_ZONE_INTERFACE_ID ||\n               super.supportsInterface(interfaceID);\n    }\n\n    function setDNSRRSet(\n        bytes32 node,\n        bytes memory name,\n        uint16 resource,\n        bytes memory data,\n        uint256 offset,\n        uint256 size,\n        bool deleteRecord) private\n    {\n        uint256 version = versions[node];\n        bytes32 nameHash = keccak256(name);\n        bytes memory rrData = data.substring(offset, size);\n        if (deleteRecord) {\n            if (records[node][version][nameHash][resource].length != 0) {\n                nameEntriesCount[node][version][nameHash]--;\n            }\n            delete(records[node][version][nameHash][resource]);\n            emit DNSRecordDeleted(node, name, resource);\n        } else {\n            if (records[node][version][nameHash][resource].length == 0) {\n                nameEntriesCount[node][version][nameHash]++;\n            }\n            records[node][version][nameHash][resource] = rrData;\n            emit DNSRecordChanged(node, name, resource, rrData);\n        }\n    }\n}\n\n// File: contracts/profiles/InterfaceResolver.sol\n\npragma solidity ^0.5.0;\n\n\n\ncontract InterfaceResolver is ResolverBase, AddrResolver {\n    bytes4 constant private INTERFACE_INTERFACE_ID = bytes4(keccak256(\"interfaceImplementer(bytes32,bytes4)\"));\n    bytes4 private constant INTERFACE_META_ID = 0x01ffc9a7;\n\n    event InterfaceChanged(bytes32 indexed node, bytes4 indexed interfaceID, address implementer);\n\n    mapping(bytes32=>mapping(bytes4=>address)) interfaces;\n\n    /**\n     * Sets an interface associated with a name.\n     * Setting the address to 0 restores the default behaviour of querying the contract at `addr()` for interface support.\n     * @param node The node to update.\n     * @param interfaceID The EIP 165 interface ID.\n     * @param implementer The address of a contract that implements this interface for this node.\n     */\n    function setInterface(bytes32 node, bytes4 interfaceID, address implementer) external authorised(node) {\n        interfaces[node][interfaceID] = implementer;\n        emit InterfaceChanged(node, interfaceID, implementer);\n    }\n\n    /**\n     * Returns the address of a contract that implements the specified interface for this name.\n     * If an implementer has not been set for this interfaceID and name, the resolver will query\n     * the contract at `addr()`. If `addr()` is set, a contract exists at that address, and that\n     * contract implements EIP165 and returns `true` for the specified interfaceID, its address\n     * will be returned.\n     * @param node The ENS node to query.\n     * @param interfaceID The EIP 165 interface ID to check for.\n     * @return The address that implements this interface, or 0 if the interface is unsupported.\n     */\n    function interfaceImplementer(bytes32 node, bytes4 interfaceID) external view returns (address) {\n        address implementer = interfaces[node][interfaceID];\n        if(implementer != address(0)) {\n            return implementer;\n        }\n\n        address a = addr(node);\n        if(a == address(0)) {\n            return address(0);\n        }\n\n        (bool success, bytes memory returnData) = a.staticcall(abi.encodeWithSignature(\"supportsInterface(bytes4)\", INTERFACE_META_ID));\n        if(!success || returnData.length < 32 || returnData[31] == 0) {\n            // EIP 165 not supported by target\n            return address(0);\n        }\n\n        (success, returnData) = a.staticcall(abi.encodeWithSignature(\"supportsInterface(bytes4)\", interfaceID));\n        if(!success || returnData.length < 32 || returnData[31] == 0) {\n            // Specified interface not supported by target\n            return address(0);\n        }\n\n        return a;\n    }\n\n    function supportsInterface(bytes4 interfaceID) public pure returns(bool) {\n        return interfaceID == INTERFACE_INTERFACE_ID || super.supportsInterface(interfaceID);\n    }\n}\n\n// File: contracts/profiles/NameResolver.sol\n\npragma solidity ^0.5.0;\n\n\ncontract NameResolver is ResolverBase {\n    bytes4 constant private NAME_INTERFACE_ID = 0x691f3431;\n\n    event NameChanged(bytes32 indexed node, string name);\n\n    mapping(bytes32=>string) names;\n\n    /**\n     * Sets the name associated with an ENS node, for reverse records.\n     * May only be called by the owner of that node in the ENS registry.\n     * @param node The node to update.\n     * @param name The name to set.\n     */\n    function setName(bytes32 node, string calldata name) external authorised(node) {\n        names[node] = name;\n        emit NameChanged(node, name);\n    }\n\n    /**\n     * Returns the name associated with an ENS node, for reverse records.\n     * Defined in EIP181.\n     * @param node The ENS node to query.\n     * @return The associated name.\n     */\n    function name(bytes32 node) external view returns (string memory) {\n        return names[node];\n    }\n\n    function supportsInterface(bytes4 interfaceID) public pure returns(bool) {\n        return interfaceID == NAME_INTERFACE_ID || super.supportsInterface(interfaceID);\n    }\n}\n\n// File: contracts/profiles/PubkeyResolver.sol\n\npragma solidity ^0.5.0;\n\n\ncontract PubkeyResolver is ResolverBase {\n    bytes4 constant private PUBKEY_INTERFACE_ID = 0xc8690233;\n\n    event PubkeyChanged(bytes32 indexed node, bytes32 x, bytes32 y);\n\n    struct PublicKey {\n        bytes32 x;\n        bytes32 y;\n    }\n\n    mapping(bytes32=>PublicKey) pubkeys;\n\n    /**\n     * Sets the SECP256k1 public key associated with an ENS node.\n     * @param node The ENS node to query\n     * @param x the X coordinate of the curve point for the public key.\n     * @param y the Y coordinate of the curve point for the public key.\n     */\n    function setPubkey(bytes32 node, bytes32 x, bytes32 y) external authorised(node) {\n        pubkeys[node] = PublicKey(x, y);\n        emit PubkeyChanged(node, x, y);\n    }\n\n    /**\n     * Returns the SECP256k1 public key associated with an ENS node.\n     * Defined in EIP 619.\n     * @param node The ENS node to query\n     * @return x, y the X and Y coordinates of the curve point for the public key.\n     */\n    function pubkey(bytes32 node) external view returns (bytes32 x, bytes32 y) {\n        return (pubkeys[node].x, pubkeys[node].y);\n    }\n\n    function supportsInterface(bytes4 interfaceID) public pure returns(bool) {\n        return interfaceID == PUBKEY_INTERFACE_ID || super.supportsInterface(interfaceID);\n    }\n}\n\n// File: contracts/profiles/TextResolver.sol\n\npragma solidity ^0.5.0;\n\n\ncontract TextResolver is ResolverBase {\n    bytes4 constant private TEXT_INTERFACE_ID = 0x59d1d43c;\n\n    event TextChanged(bytes32 indexed node, string indexed indexedKey, string key);\n\n    mapping(bytes32=>mapping(string=>string)) texts;\n\n    /**\n     * Sets the text data associated with an ENS node and key.\n     * May only be called by the owner of that node in the ENS registry.\n     * @param node The node to update.\n     * @param key The key to set.\n     * @param value The text data value to set.\n     */\n    function setText(bytes32 node, string calldata key, string calldata value) external authorised(node) {\n        texts[node][key] = value;\n        emit TextChanged(node, key, key);\n    }\n\n    /**\n     * Returns the text data associated with an ENS node and key.\n     * @param node The ENS node to query.\n     * @param key The text data key to query.\n     * @return The associated text data.\n     */\n    function text(bytes32 node, string calldata key) external view returns (string memory) {\n        return texts[node][key];\n    }\n\n    function supportsInterface(bytes4 interfaceID) public pure returns(bool) {\n        return interfaceID == TEXT_INTERFACE_ID || super.supportsInterface(interfaceID);\n    }\n}\n\n// File: contracts/PublicResolver.sol\n\npragma solidity ^0.5.0;\npragma experimental ABIEncoderV2;\n\n\n\n\n\n\n\n\n\n\n/**\n * A simple resolver anyone can use; only allows the owner of a node to set its\n * address.\n */\ncontract PublicResolver is ABIResolver, AddrResolver, ContentHashResolver, DNSResolver, InterfaceResolver, NameResolver, PubkeyResolver, TextResolver {\n    ENS ens;\n\n    /**\n     * A mapping of authorisations. An address that is authorised for a name\n     * may make any changes to the name that the owner could, but may not update\n     * the set of authorisations.\n     * (node, owner, caller) => isAuthorised\n     */\n    mapping(bytes32=>mapping(address=>mapping(address=>bool))) public authorisations;\n\n    event AuthorisationChanged(bytes32 indexed node, address indexed owner, address indexed target, bool isAuthorised);\n\n    constructor(ENS _ens) public {\n        ens = _ens;\n    }\n\n    /**\n     * @dev Sets or clears an authorisation.\n     * Authorisations are specific to the caller. Any account can set an authorisation\n     * for any name, but the authorisation that is checked will be that of the\n     * current owner of a name. Thus, transferring a name effectively clears any\n     * existing authorisations, and new authorisations can be set in advance of\n     * an ownership transfer if desired.\n     *\n     * @param node The name to change the authorisation on.\n     * @param target The address that is to be authorised or deauthorised.\n     * @param isAuthorised True if the address should be authorised, or false if it should be deauthorised.\n     */\n    function setAuthorisation(bytes32 node, address target, bool isAuthorised) external {\n        authorisations[node][msg.sender][target] = isAuthorised;\n        emit AuthorisationChanged(node, msg.sender, target, isAuthorised);\n    }\n\n    function isAuthorised(bytes32 node) internal view returns(bool) {\n        address owner = ens.owner(node);\n        return owner == msg.sender || authorisations[node][owner][msg.sender];\n    }\n\n    function multicall(bytes[] calldata data) external returns(bytes[] memory results) {\n        results = new bytes[](data.length);\n        for(uint i = 0; i < data.length; i++) {\n            (bool success, bytes memory result) = address(this).delegatecall(data[i]);\n            require(success);\n            results[i] = result;\n        }\n        return results;\n    }\n}\n",
  "sourcePath": "/Users/kirillfedoseev/work/resolvers/contracts/PublicResolver_flat.sol",
  "compiler": {
    "name": "solc",
    "version": "0.5.16+commit.9c3226ce.Emscripten.clang"
  },
  "schemaVersion": "3.2.3",
  "updatedAt": "2020-08-07T07:29:33.138Z",
  "devdoc": {
    "methods": {
      "ABI(bytes32,uint256)": {
        "params": {
          "contentTypes": "A bitwise OR of the ABI formats accepted by the caller.",
          "node": "The ENS node to query"
        },
        "return": "contentType The content type of the return valuedata The ABI data"
      },
      "addr(bytes32)": {
        "params": {
          "node": "The ENS node to query."
        },
        "return": "The associated address."
      },
      "clearDNSZone(bytes32)": {
        "params": {
          "node": "the namehash of the node for which to clear the zone"
        }
      },
      "contenthash(bytes32)": {
        "params": {
          "node": "The ENS node to query."
        },
        "return": "The associated contenthash."
      },
      "dnsRecord(bytes32,bytes32,uint16)": {
        "params": {
          "name": "the keccak-256 hash of the fully-qualified name for which to fetch the record",
          "node": "the namehash of the node for which to fetch the record",
          "resource": "the ID of the resource as per https://en.wikipedia.org/wiki/List_of_DNS_record_types"
        },
        "return": "the DNS record in wire format if present, otherwise empty"
      },
      "hasDNSRecords(bytes32,bytes32)": {
        "params": {
          "name": "the namehash of the node for which to check the records",
          "node": "the namehash of the node for which to check the records"
        }
      },
      "interfaceImplementer(bytes32,bytes4)": {
        "params": {
          "interfaceID": "The EIP 165 interface ID to check for.",
          "node": "The ENS node to query."
        },
        "return": "The address that implements this interface, or 0 if the interface is unsupported."
      },
      "name(bytes32)": {
        "params": {
          "node": "The ENS node to query."
        },
        "return": "The associated name."
      },
      "pubkey(bytes32)": {
        "params": {
          "node": "The ENS node to query"
        },
        "return": "x, y the X and Y coordinates of the curve point for the public key."
      },
      "setABI(bytes32,uint256,bytes)": {
        "params": {
          "contentType": "The content type of the ABI",
          "data": "The ABI data.",
          "node": "The node to update."
        }
      },
      "setAddr(bytes32,address)": {
        "params": {
          "a": "The address to set.",
          "node": "The node to update."
        }
      },
      "setAuthorisation(bytes32,address,bool)": {
        "details": "Sets or clears an authorisation. Authorisations are specific to the caller. Any account can set an authorisation for any name, but the authorisation that is checked will be that of the current owner of a name. Thus, transferring a name effectively clears any existing authorisations, and new authorisations can be set in advance of an ownership transfer if desired.",
        "params": {
          "isAuthorised": "True if the address should be authorised, or false if it should be deauthorised.",
          "node": "The name to change the authorisation on.",
          "target": "The address that is to be authorised or deauthorised."
        }
      },
      "setContenthash(bytes32,bytes)": {
        "params": {
          "hash": "The contenthash to set",
          "node": "The node to update."
        }
      },
      "setDNSRecords(bytes32,bytes)": {
        "params": {
          "data": "the DNS wire format records to set",
          "node": "the namehash of the node for which to set the records"
        }
      },
      "setInterface(bytes32,bytes4,address)": {
        "params": {
          "implementer": "The address of a contract that implements this interface for this node.",
          "interfaceID": "The EIP 165 interface ID.",
          "node": "The node to update."
        }
      },
      "setName(bytes32,string)": {
        "params": {
          "name": "The name to set.",
          "node": "The node to update."
        }
      },
      "setPubkey(bytes32,bytes32,bytes32)": {
        "params": {
          "node": "The ENS node to query",
          "x": "the X coordinate of the curve point for the public key.",
          "y": "the Y coordinate of the curve point for the public key."
        }
      },
      "setText(bytes32,string,string)": {
        "params": {
          "key": "The key to set.",
          "node": "The node to update.",
          "value": "The text data value to set."
        }
      },
      "setZonehash(bytes32,bytes)": {
        "params": {
          "hash": "The zonehash to set",
          "node": "The node to update."
        }
      },
      "text(bytes32,string)": {
        "params": {
          "key": "The text data key to query.",
          "node": "The ENS node to query."
        },
        "return": "The associated text data."
      },
      "zonehash(bytes32)": {
        "params": {
          "node": "The ENS node to query."
        },
        "return": "The associated contenthash."
      }
    }
  },
  "userdoc": {
    "methods": {
      "ABI(bytes32,uint256)": {
        "notice": "Returns the ABI associated with an ENS node. Defined in EIP205."
      },
      "addr(bytes32)": {
        "notice": "Returns the address associated with an ENS node."
      },
      "clearDNSZone(bytes32)": {
        "notice": "Clear all information for a DNS zone."
      },
      "contenthash(bytes32)": {
        "notice": "Returns the contenthash associated with an ENS node."
      },
      "dnsRecord(bytes32,bytes32,uint16)": {
        "notice": "Obtain a DNS record."
      },
      "hasDNSRecords(bytes32,bytes32)": {
        "notice": "Check if a given node has records."
      },
      "interfaceImplementer(bytes32,bytes4)": {
        "notice": "Returns the address of a contract that implements the specified interface for this name. If an implementer has not been set for this interfaceID and name, the resolver will query the contract at `addr()`. If `addr()` is set, a contract exists at that address, and that contract implements EIP165 and returns `true` for the specified interfaceID, its address will be returned."
      },
      "name(bytes32)": {
        "notice": "Returns the name associated with an ENS node, for reverse records. Defined in EIP181."
      },
      "pubkey(bytes32)": {
        "notice": "Returns the SECP256k1 public key associated with an ENS node. Defined in EIP 619."
      },
      "setABI(bytes32,uint256,bytes)": {
        "notice": "Sets the ABI associated with an ENS node. Nodes may have one ABI of each content type. To remove an ABI, set it to the empty string."
      },
      "setAddr(bytes32,address)": {
        "notice": "Sets the address associated with an ENS node. May only be called by the owner of that node in the ENS registry."
      },
      "setContenthash(bytes32,bytes)": {
        "notice": "Sets the contenthash associated with an ENS node. May only be called by the owner of that node in the ENS registry."
      },
      "setDNSRecords(bytes32,bytes)": {
        "notice": "Set one or more DNS records.  Records are supplied in wire-format. Records with the same node/name/resource must be supplied one after the other to ensure the data is updated correctly. For example, if the data was supplied:    a.example.com IN A 1.2.3.4    a.example.com IN A 5.6.7.8    www.example.com IN CNAME a.example.com. then this would store the two A records for a.example.com correctly as a single RRSET, however if the data was supplied:    a.example.com IN A 1.2.3.4    www.example.com IN CNAME a.example.com.    a.example.com IN A 5.6.7.8 then this would store the first A record, the CNAME, then the second A record which would overwrite the first."
      },
      "setInterface(bytes32,bytes4,address)": {
        "notice": "Sets an interface associated with a name. Setting the address to 0 restores the default behaviour of querying the contract at `addr()` for interface support."
      },
      "setName(bytes32,string)": {
        "notice": "Sets the name associated with an ENS node, for reverse records. May only be called by the owner of that node in the ENS registry."
      },
      "setPubkey(bytes32,bytes32,bytes32)": {
        "notice": "Sets the SECP256k1 public key associated with an ENS node."
      },
      "setText(bytes32,string,string)": {
        "notice": "Sets the text data associated with an ENS node and key. May only be called by the owner of that node in the ENS registry."
      },
      "setZonehash(bytes32,bytes)": {
        "notice": "setZonehash sets the hash for the zone. May only be called by the owner of that node in the ENS registry."
      },
      "text(bytes32,string)": {
        "notice": "Returns the text data associated with an ENS node and key."
      },
      "zonehash(bytes32)": {
        "notice": "zonehash obtains the hash for the zone."
      }
    },
    "notice": "A simple resolver anyone can use; only allows the owner of a node to set its address."
  }
}